:1000000010C02AC029C028C027C026C025C024C0CF
:1000100023C022C021C020C01FC01EC01DC01CC0E4
:100020001BC011241FBECFE5D1E0DEBFCDBF10E065
:10003000A0E6B0E0E6EEF3E002C005900D92A03637
:10004000B107D9F710E0A0E6B0E001C01D92A536D7
:10005000B107E1F7A6D1C5C1D3CFD898DB98D99A1B
:10006000DC9A109260000FC0D99ADC9A95E89A95B4
:10007000F1F70000D998DC989AE19A95F1F700C061
:100080008F5F8093600080916000863968F30895E7
:10009000D898DC98D99ADB9A109260000FC0D99A50
:1000A000DB9A95E89A95F1F70000D998DB989AE1E8
:1000B0009A95F1F700C08F5F809360008091600097
:1000C000863968F30895D998DB98D89ADC9A10920B
:1000D00060000FC0D89ADC9A95E89A95F1F7000075
:1000E000D898DC989AE19A95F1F700C08F5F8093D9
:1000F000600080916000863968F30895D998DC9893
:10010000D89ADB9A109260000FC0D89ADB9A95E8D3
:100110009A95F1F70000D898DB989AE19A95F1F753
:1001200000C08F5F8093600080916000863968F323
:10013000089593DFC8DFE2DFABDF0895A9DFDEDFDC
:10014000C2DF8BDF0895FC01DA011C9280818623D7
:10015000E9F785E88A95F1F7000087EC90E00197D0
:10016000F1F700C000008081862319F08C91816036
:100170008C9387EC90E00197F1F700C0000080813C
:10018000862319F08C9182608C9387EC90E0019724
:10019000F1F700C000008081862319F08C91846003
:1001A0008C9387EC90E00197F1F700C0000080810C
:1001B000862319F08C9188608C9387EC90E00197EE
:1001C000F1F700C000008081862319F08C918061D6
:1001D0008C9387EC90E00197F1F700C000008081DC
:1001E000862319F08C9180628C9387EC90E00197C4
:1001F000F1F700C000008081862319F08C918064A3
:100200008C9387EC90E00197F1F700C000008081AB
:10021000862319F08C9180688C9387EC90E001978D
:10022000F1F700C0000095E89A95F1F700000895F5
:10023000FC018081262F20958223808387EC90E02B
:100240000197F1F700C00000842F992787FD909552
:10025000308180FF02C0362B01C032233083A7ECEF
:10026000B0E01197F1F700C00000308181FF02C0BB
:10027000362B01C032233083A7ECB0E01197F1F7A1
:1002800000C00000308182FF02C0362B01C0322343
:100290003083A7ECB0E01197F1F700C00000308187
:1002A00083FF02C0362B01C032233083A7ECB0E0BD
:1002B0001197F1F700C00000308184FF02C0362B97
:1002C00001C032233083A7ECB0E01197F1F700C0F2
:1002D0000000308185FF02C0362B01C032233083FD
:1002E000A7ECB0E01197F1F700C0000086FF03C053
:1002F0008081862B02C080818223808387EC90E0FE
:100300000197F1F700C00000808147FF02C0862BF3
:1003100001C082238083A7ECB0E01197F1F700C001
:1003200000008081862B808387EC90E00197F1F7B5
:1003300000C00000A7ECB0E01197F1F700C000008A
:100340000895CF93DF93EA0110926200109261004A
:10035000E0916100F0916200EC0FFD1F4491409329
:10036000630088E390E060E863DF80916100909132
:100370006200019690936200809361008091630017
:10038000882331F7DF91CF910895C6988FEF90E7DA
:10039000A2E081509040A040E1F700C00000C69A62
:1003A000089580E886BD16BCD998D19AD898D09A7D
:1003B000DC98D49ADB98D39AC79ABF98C69ABE9A0B
:1003C00086E390E064E044E650E0BDDE80916400A6
:1003D0008C3309F4AEDE809164008E3389F7AEDE93
:0603E000EFCFF894FFCFFF
:00000001FF
